:020000040800F2
:1000000050050020A1010008931A0008E918000813
:10001000911A00082503000835210008000000009F
:10002000000000000000000000000000611C00084B
:100030002703000800000000B51A0008631C000830
:10004000BB010008BB010008BB010008BB010008A0
:10005000BB010008BB010008BB010008BB01000890
:10006000BB010008BB010008BB010008BB01000880
:10007000BB010008BB010008BB010008BB01000870
:10008000BB010008BB010008BB010008BB01000860
:10009000BB010008BB010008BB010008BB01000850
:1000A000BB010008BB010008BB010008BB01000840
:1000B000BB0100080000000000000000BB010008B8
:1000C000BB0100080000000000000000BB010008A8
:1000D00000000000BB010008BB0100080000000098
:1000E000BB010008BB010008000000000000000088
:1000F0000000000000000000000000000000000000
:10010000000000000000000000000000BB0100082B
:100110000000000000000000BB010008BB01000857
:10012000BB010008BB010008BB010008BB010008BF
:10013000BB010008000000000000000000000000FB
:10014000BB010008BB010008BB010008BB0100089F
:10015000BB010008BB010008BB010008BB0100088F
:10016000BB010008BB010008BB0100080000000043
:10017000BB010008BB0100080000000000000000F7
:10018000BB010008BB010008BB010008DFF80CD070
:1001900000F082F800480047E522000850050020E2
:1001A0000648804706480047FEE7FEE7FEE7FEE711
:1001B000FEE7FEE7FEE7FEE7FEE7FEE7351D000887
:1001C0008D0100082DE9F05F0546002092469B4610
:1001D00088460646814640241BE02846414647465D
:1001E000224600F048F853465A46C01A914110D3AF
:1001F00011461846224600F02FF82D1A67EB010829
:100200004F4622460120002100F026F817EB000996
:100210004E41201EA4F10104DFDC484631462A4647
:10022000434600F000B830BCBDE8C09F30B50B4677
:10023000014600202022012409E021FA02F59D4216
:1002400005D303FA02F5491B04FA02F52844151EEA
:10025000A2F10102F1DC30BD202A04DB203A00FAD1
:1002600002F1002070479140C2F1200320FA03F30D
:10027000194390407047202A04DB203A21FA02F00B
:100280000021704721FA02F3D040C2F120029140D0
:100290000843194670470000064C074D06E0E06829
:1002A00040F0010394E8070098471034AC42F6D3BD
:1002B000FFF770FF582400087824000870B5044642
:1002C0000068816811F0010F28D18168144A114239
:1002D00015D18168D5432940491C816000F090FC0C
:1002E000064616E0816811F0010F03D181682940AC
:1002F000491C816000F084FC801B022809D9606DD4
:1003000040F010006065A06D40F00100A065012084
:1003100070BD20680168C943C907E3D1002070BDE2
:100320003F000080FEE770472DE9F84F00270446A4
:10033000009790F85000DFF8B0930D46B8460128BA
:1003400011D0012684F85060206801F0D8FA60B11D
:10035000606D40F0200060655FF0010784F8508018
:10036000384600F0D7B90220FBE768680C2305285F
:1003700012D8022807D0032807D0042807D0052860
:1003800007D0062007E06B6006E0122003E018208B
:1003900001E04FF480706860D5E9002103EA911311
:1003A000206801F01F0118444FF01F0C0CFA01FCEB
:1003B000036BC2F3846223EA0C038A401343036392
:1003C000206801F09CFA8246206801F094FA5AEA0B
:1003D00000001DD1AA682968206801F09CFA2068F5
:1003E0006969C268C2F3C102520091402A69042AB5
:1003F0000FD000EB82002B68DFF8F0C2026E03F032
:10040000F84302EA0C020B431A4342F00041016632
:1004100072E0002101F069FA400320684FF000010A
:1004200072D001F062FA90FAA0F0B0FA80F1286878
:1004300042036ED090FAA0F0B0FA80F0814204D16D
:1004400000221146206801F075FA0121206801F0B0
:100450004CFA400320684FF001015DD001F045FAED
:1004600090FAA0F0B0FA80F12868420359D090FACF
:10047000A0F0B0FA80F0814204D10022012120686E
:1004800001F058FA0221206801F02FFA4003206899
:100490004FF0020148D001F028FA90FAA0F0B0FA2B
:1004A00080F12868420344D090FAA0F0B0FA80F0BE
:1004B000814204D100220221206801F03BFA03218D
:1004C000206801F012FA400320684FF0030133D096
:1004D00001F00BFA90FAA0F0B0FA80F1286842031C
:1004E0002FD090FAA0F0B0FA80F0814204D100221F
:1004F0000321206801F01EFA2068816811F0010FC5
:1005000022D0ACE000E004E001F0EFF9C0F3846138
:100510008DE7C0F3846091E701F0E7F9C0F38461EF
:10052000A2E7C0F38460A6E701F0DFF9C0F38461BD
:10053000B7E7C0F38460BBE701F0D7F9C0F384618B
:10054000CCE7C0F38460D0E72A7B296850F8B03F3D
:10055000C1F3120C23EA0C0302F0180C644A22FACD
:100560000CF20A4013430360E968494577D12868D3
:1005700041031CD090FAA0F1B1FA81F1491C01F0BD
:100580001F0109294FEA403132D8002912D000BF9B
:1005900090FAA0F1B1FA81F101F1010101F01F011E
:1005A00006FA01F609D100BFC0F3846109E0C0F387
:1005B0008461E3E7C0F38461EEE790FAA0F1B1FA59
:1005C00081F101F1010101F01F0146EA816102D1CF
:1005D000C0F3846003E090FAA0F0B0FA80F000F17C
:1005E000010000F01F0000EB400041EA005132E042
:1005F00000290ED090FAA0F1B1FA81F101F10101C8
:1006000001F01F0106FA01F606D100BFC0F38461B4
:1006100006E0C0F38461F1E790FAA0F1B1FA81F14C
:1006200001F1010101F01F0146EA816102D1C0F32D
:10063000846003E090FAA0F0B0FA80F000F10100CD
:1006400000F01F002B4A00EB400002EB005041EA93
:10065000000141F00071AA68206801F05CF92648A9
:100660002A6802423FF47AAE24488168244D254B23
:1006700001F0E071AA421AD10D0218D422689A4200
:100680007FF46CAE826841F4000122F0E0720A430C
:1006900082601D481D490068B0FBF1F000EB40008E
:1006A000800000E0401E00900028FBD156E6184D67
:1006B000AA4207D1CD0105D422689A42F6D141F071
:1006C00080710AE06FF00045EA42EFD14A02EDD4B2
:1006D00022689A42EAD141F48001826822F0E072F5
:1006E0000A4382603AE6000000007F4000F0FF030A
:1006F000FFFF0700000020FE0000088000030450F8
:10070000000052C70000045008000020400D030004
:10071000000084CB18BCBDE8E08F0068006C704717
:10072000F8B54FF0000504002E46009502D0606D2C
:1007300010B107E00120F8BD204600F0C7F8A6651B
:1007400084F8506020688168C1F3407119B18168F4
:10075000564A1140816020688168C1F3007179B9FF
:100760008168534A114041F080518160514852499B
:100770000068B0FBF1F000E0401E00900028FBD1C3
:1007800020688168C1F3007141B9616D41F01001C9
:100790006165A16D41F00101A165012501F0AFF88E
:1007A000616DC90600D430B1606D40F01000606525
:1007B00001252846F8BD606D20F4807040F00200ED
:1007C00060652068806810F0010F0BD13B4880689D
:1007D00010F0010F06D13A486168826822F47C1259
:1007E0000A438260E168606B627E0843A16841EA67
:1007F0004231084394F8201040EA0140012904D115
:10080000A18C304A02EB41410843A16A29B101F4AD
:100810007071E26A014342EA01002168CA682A4B0A
:100820001A400243CA60206801F069F80646206851
:1008300001F061F8304315D1207E94F83010800328
:1008400040EA41022068C16844F20203994311431F
:10085000C16094F8380001280CD02068016921F0AB
:1008600001010161206901282068016B21F00F015D
:1008700011D013E0D4E90F010843D4E91112114358
:10088000084321680A6940F2FC739A43104340F020
:1008900001000861E6E7E269521E11430163606DE1
:1008A00020F0020040F00100606582E7C0FFFF5FBA
:1008B000C0FFFF7F08000020400D0300000004502F
:1008C000000304500000FEFF07C0F0FF00B5006801
:1008D0000C4987B0884213D10B48C16C41F40051D8
:1008E000C164C06C694600F400500590022000907D
:1008F0000B200190002002904FF0904000F0ACF8E7
:1009000007B000BD00000450001002402DE9F04186
:10091000044640690D4608280AD02068C068C00710
:1009200008D0606D40F0200060650120BDE8F081D6
:10093000082600E0042600F063F9074607E0681C7B
:1009400005D000F05DF9C01BA8420FD875B1206832
:1009500000683042F3D0606D40F40070606520683C
:1009600000F0D1FFD0B1607E48B117E0606D40F07B
:1009700004006065002084F850000320D6E720685A
:10098000006800070AD5606D20F480706065606DB6
:10099000C00403D4606D40F0010060652068C16848
:1009A000082E05D0490401D40C2101600020BDE7C8
:1009B0000821FAE710B50446006800F0A0FF10B166
:1009C0000221084610BD94F8500001280CD00120E7
:1009D00084F850002046FFF771FC01004FF0000042
:1009E00004D084F85000ECE7022010BD626D40F6A0
:1009F00001639A4342F480726265626DD20404D549
:100A0000A26D22F00602A26500E0A06523681C2208
:100A10001A6084F850002068C268920105D5626DA2
:100A200022F4005242F4805262658268024B1A40FE
:100A3000121D8260C5E70000C0FFFF7F70B504464D
:100A400000F0DEF80546601C00D0641C00F0D8F809
:100A5000401BA042FAD370BD2DE9F84FDFF870B10A
:100A6000002301274FF0030A4FF00F090BF1040E8A
:100A7000A7E000BF07FA03F6324070D04C68022CA2
:100A800001D0122C10D1DC0800EB8408D8F82040EB
:100A90005D074FEAD56C09FA0CF5AC430D6905FA10
:100AA0000CF52543C8F82050D0F800805D0091F87F
:100AB00004C00AFA05F40CF0030C28EA04080CFA46
:100AC00005FC4CEA080CC0F800C0D1F804C0BCF129
:100AD000010F08D0BCF1020F05D0BCF1110F02D0FC
:100AE000BCF1120F16D1D0F808C0D1F80C802CEA56
:100AF000040C08FA05F848EA0C08C0F80880D0F899
:100B000004C02CEA060C0E79C6F300169E4046EA95
:100B10000C064660C668A6438C68AC403443C4608B
:100B20004C68E4004CD52B4C256E45F0010525663C
:100B3000246E23F0030504F001040094264C2E19C2
:100B4000B4689D074FEA157C09FA0CF5AC43B0F187
:100B5000904F05D0214DA84204D1012508E02FE097
:100B6000002505E01E4DA84201D1022500E0072521
:100B700005FA0CF52543B560DBF800405D464E688C
:100B80009443F60300D514432C60DEF8004075460C
:100B90004E689443B60300D514432C600C4D0835C1
:100BA0002C684E689443F60200D514432C60084D1F
:100BB0000C352C684E689443B60200D514432C6063
:100BC0005B1C0A6832FA03F47FF454AF00F00AB8F1
:100BD00000040140001002400000014000040048F1
:100BE0000008004818BCBDE8E08F0069084000D04C
:100BF000012070470AB1816170478162704700002F
:100C000001480068704700000400002002480168A5
:100C1000491C0160704700000400002010B500244A
:100C2000032000F083F8002000F008F808B1012448
:100C300001E000F01BF8204610BD000070B505462D
:100C400009484FF47A7100240068B0FBF1F000F01D
:100C500082FD08B1012404E000222946501E00F064
:100C600045F8204670BD0000080000201E4808B569
:100C7000016E41F001010166016E01F00101009178
:100C8000816D41F080518165806D00F08050009051
:100C9000032000F04BF8002211466FF00B0000F02B
:100CA00025F8002211466FF00A0000F01FF800221C
:100CB00011466FF0090000F019F800221146501F8C
:100CC00000F014F800221146101F00F00FF8002267
:100CD0001146901E00F00AF80022BDE808401146B7
:100CE000501E00F003B8000000100240F0B40E4B9C
:100CF0001B680C46C3F30223C3F10705042D00D97A
:100D00000425191D072901D2002300E0DB1E01265E
:100D100006FA05F1491E214099409E40761E164074
:100D20003143F0BC00F0B6BE0CED00E0064900F027
:100D3000070208684FF6FF03184040EA0220034A02
:100D400010430860704700000CED00E00000FA0559
:100D50001649B0F5007F0868C0F3412009D0022889
:100D600005D0086820F4C06040F48060086000206E
:100D700070470128FBD0086820F4C06040F4007080
:100D800008600B483222006850430A4AB0FBF2F078
:100D9000401C00E0401E4A69520501D50028F9D1E7
:100DA00048694005E3D5032070470000007000400B
:100DB0000800002040420F000248006800F4C060B4
:100DC00070470000007000400248016841F48071E3
:100DD00001607047007000400248016841F0040162
:100DE00001607047001002402DE9F84F04460027CB
:100DF00000889C4D3E46000515D5E06B60B1B0F50E
:100E0000000F04D0B0F5400F2BD001270AE0E868AE
:100E100040F48030E86024E00021201D00F04CFE0A
:100E200007001ED03E462068800338D5A86D4FF0DD
:100E30000008C00009D4A86D40F08050A865A86DD6
:100E40004FF0010800F080500090DFF81CA2DAF8A3
:100E5000001041F48071CAF80010FFF7D1FE8146FE
:100E600010E0D5F88800E16B20F440000843C5F895
:100E70008800D8E7FFF7C4FEA0EB0900022801D9DB
:100E8000032704E0DAF80000C005F3D5EFB33E46CF
:100E9000B8F1000F03D0A86D20F08050A86520782D
:100EA000C00707D0D5F88800216A20F00300084366
:100EB000C5F888002078800707D5D5F88800616AD2
:100EC00020F00C000843C5F888002078800607D57C
:100ED000D5F88800A16A20F440600843C5F888006E
:100EE0002088800507D5D5F88800616B20F4402064
:100EF0000843C5F888002088400509D5D5F8880042
:100F0000A16B20F44010084300E02EE0C5F88800F3
:100F10002078400607D5D5F88800E16A20F44050D3
:100F20000843C5F888002088C00507D5D5F8880093
:100F3000216B20F440300843C5F8880020884FF02A
:100F4000006780044FF080684ED5D5F88800216C8A
:100F500020F040600843C5F88800206CB8423BD1BF
:100F6000E86840F48010E8603EE0D5F8900010F4A6
:100F7000407014D0216D814211D0D5F89000D5F881
:100F8000901020F4407041F48031C5F89010D5F8ED
:100F9000901021F48031C5F89010C5F89000C0077A
:100FA00011D0FFF72DFE074641F2883907E000BF58
:100FB000FFF726FEC11B494501D9032668E7D5F88E
:100FC00090008007F4D5D5F89000216D20F4407092
:100FD0000843C5F890005BE7404505D10121201D7D
:100FE00000F06AFD00B106462068400317D5D5F829
:100FF0008800616C20F040600843C5F88800606C90
:10100000B84204D1E86840F48010E86007E0404549
:1010100005D10121201D00F04FFD00B106462088BA
:10102000400411D5D5F88800A16C20F04050084349
:10103000C5F88800A06CB0F1805F05D10221201DA9
:1010400000F03AFD00B106462088000406D555F8A8
:10105000880FE16C20F0804008432860304600F0A3
:1010600005B80000001002400070004018BCBDE848
:10107000E08F00002DE9F0470F46050058D03F4EA5
:10108000306800F00700B84209D2306820F007004D
:1010900038433060306800F00700B84248D1287803
:1010A000374CC0072CD06868032811D0022812D012
:1010B000216898B1490500293ADAA16821F00301B5
:1010C0000143A160FFF79CFD804641F2883910E0A2
:1010D00021688901EFE721688903ECE78907EAE7DE
:1010E000FFF78EFDA0EB0801494502D90320BDE8BA
:1010F000F087A068696800F00C00B0EB810FEFD1B9
:101100002878800705D5A068A96820F0F00008437A
:10111000A060306800F00700B8420BD9306820F0BA
:10112000070038433060306800F00700B84201D053
:101130000120DCE72878400705D5A068E96820F49D
:10114000E0600843A0602878000706D5A0682969F8
:1011500020F4605040EAC100A06000F041F8A168AE
:10116000084AC1F30311515C01F01F01C840064950
:101170000860BDE8F0470020FFF760BD0020024096
:1011800000100240102400080800002001480068F8
:10119000704700000800002005480649006889687B
:1011A000054AC1F30221515C01F01F01C84070479C
:1011B000080000200010024050240008054806499D
:1011C00000688968054AC1F3C221515C01F01F0122
:1011D000C84070470800002000100240502400085A
:1011E00070B52549002318468A68CC6812F00C02B5
:1011F00004F00306214C4FEA640509D00C2A05D0FF
:10120000042A26D0082A00D1284670BD012E10D10C
:101210000B681B0704D4D1F89430C3F3032302E016
:101220000B68C3F30313164E56F823307AB10C2A19
:10123000EBD1C86800F00302C868C0F30210401C7C
:10124000022A08D0032A09D0B3FBF0F008E01846C0
:1012500070BD204670BDB4FBF0F001E0B5FBF0F0CE
:10126000CA68C968C2F306225043C1F34161491CF0
:101270004900B0FBF1F070BD001002400024F40002
:10128000202400082DE9F84305007CD0FD4CA0681F
:1012900000F00C06E06800F003072878C00662D56D
:1012A00076B10C2E01D1012F0AD0A8690028206840
:1012B00078D040F001002060FFF7A2FC804659E0A2
:1012C0002068800702D5A8690028DED0296A206836
:1012D000000703D5206800F0F00004E0D4F8940083
:1012E000F02202EA1010814216D9084600F07AFC7A
:1012F000002848D1206840F0080020602068296A52
:1013000020F0F000084320606068E96920F47F4025
:1013100040EA0120606015E0206840F0080020608D
:101320002068296A20F0F000084320606068E969BD
:1013300020F47F4040EA01206060286A00F052FCFF
:101340000028D6D1FFF74CFFA168CF4AC1F30311A3
:10135000515C01F01F01C840CC4908600020FFF734
:101360006DFC00287ED12EE0FFF74AFCA0EB0800C0
:10137000022878D820688007F6D5206840F0080059
:101380002060206801E0BBE00CE0296A20F0F0005A
:10139000084320606068E96920F47F4040EA01204A
:1013A000606010E020F001002060FFF729FC80461B
:1013B00006E000BFFFF724FCA0EB08000228D8D805
:1013C00020688007F6D42878C00740D0082E18D0AF
:1013D0000C2E01D1032F14D06868B0F5803F17D0D0
:1013E000B0F5A02F206817D020F48030206020684E
:1013F00020F4802020606868E0B1FFF701FC80469F
:1014000014E02068800322D56868002878D01EE0A8
:10141000206840F48030EDE740F480202060F7E75A
:10142000FFF7EEFBA0EB08006428A2D82068800339
:10143000F6D50CE0FFF7E4FB804605E0FFF7E0FBA4
:10144000A0EB0800642894D820688003F6D428789C
:1014500080073BD5042E11D00C2E01D1022F0DD0C8
:10146000E86801E05EE1B8E0002820681ED040F4A2
:1014700080702060FFF7C4FB07460CE02068400541
:101480000CD5E8680028C1D008E000BFFFF7B8FB22
:10149000C01B022893D820684005F7D56068297CD6
:1014A00020F0F85040EA016060600FE020F48070A6
:1014B0002060FFF7A5FB074605E000BFFFF7A0FB94
:1014C000C01B0228B1D820684005F7D4287800074F
:1014D00029D568690028D4F8940012D040F00100A2
:1014E000C4F89400FFF78CFB074604E0FFF788FB85
:1014F000C01B022871D8D4F894008007F6D512E0FA
:1015000017E120F00100C4F89400FFF779FB0746CB
:1015100005E000BFFFF774FBC01B02285DD8D4F8BC
:1015200094008007F6D42878400766D5A06D002780
:10153000C00008D4A06D40F08050A065A06D0127C8
:1015400000F08050009052480168C90512D401682B
:10155000814641F480710160FFF752FB804605E04F
:10156000FFF74EFBA0EB0800022836D8D9F80000A0
:10157000C005F5D5A868012816D00528D4F8900034
:1015800017D020F00100C4F89000D4F8900020F0AB
:10159000040000BFC4F89000A86841F28839C0B1C7
:1015A000FFF72EFB80460FE0D4F8900040F00100DA
:1015B000F0E740F00400C4F89000F5E7FFF720FBE7
:1015C000A0EB0801494508D8D4F890008007F5D56C
:1015D0000EE0FFF715FB804606E07CE0FFF710FB0E
:1015E000A0EB0801494576D8D4F890008007F5D4DF
:1015F0001FB1A06D20F08050A0652878800628D506
:10160000686A0028D4F8980012D040F00100C4F8AD
:101610009800FFF7F5FA074605E000BFFFF7F0FA7C
:10162000C01B02287DD8D4F898008007F6D510E0BA
:1016300020F00100C4F89800FFF7E2FA074604E042
:10164000FFF7DEFAC01B02286BD8D4F89800800799
:10165000F6D4A86AF0B30C2E6BD00228206820F0D4
:101660008070206018D02068000103D4E06820F06A
:101670000300E060E06807490840E060FFF7C0FA57
:10168000054651E000100240102400080800002028
:1016900000700040FFFFEEFEFFF7B2FA064604E0DE
:1016A000FFF7AEFA801B02283BD820688001F7D4F0
:1016B000286B55F82C1F000110380843298A1E4A50
:1016C000490802EB4151AA6841EA02210843297DF9
:1016D000490801E02BE024E04FF07E4202EB41613B
:1016E0000843297B40EAC160E060206840F08070D8
:1016F0002060E06840F08070E060FFF781FA054606
:1017000005E000BFFFF77CFA401B022809D82068DB
:101710008001F7D50BE000BFFFF772FA401B0228EB
:1017200002D90320BDE8F88320688001F4D40020AA
:10173000F8E70120F6E700000000E0FF4FF0E021AD
:101740000428086903D020F004000861704740F0C5
:101750000400FAE7704710B5401EB0F1807F01D356
:10176000012010BD4FF0E02460610F21601700F0F0
:1017700091F90020A06107202061002010BD10B564
:10178000FFF7E8FF10BD10B5040003D094F8710016
:1017900010B107E0012010BD002084F87000204641
:1017A00000F026F8242084F871002068016821F0F8
:1017B00001010160204600F071FB0128EBD0606A56
:1017C00010B1204600F0D8FA2068416821F4904119
:1017D00041602068816821F02A01816020680168E9
:1017E00041F0010101602046BDE8104000F028BB37
:1017F00000B500680E4987B0884217D10D48816D49
:1018000041F400318165806D694600F40030059037
:101810000C200090022001900020029003200390F1
:10182000072004904FF09040FFF716F907B000BD75
:1018300000440040001002402DE9F843044690F8AF
:1018400071001F4616460D4620284BD1C5B1BEB1CA
:1018500094F87000012845D0012084F870004FF002
:101860000008C4F87480212084F87100FFF7C8F9DB
:10187000A4F850608146A4F852604FF4805615E0F9
:101880000120BDE8F8838021204600F021FCD8B972
:10189000A068B04201D12069C0B115F8010B2168E0
:1018A0000885B4F85200401EA4F85200B4F8520063
:1018B0004B464FF0000200970028E4D14FF0400162
:1018C000204600F005FC30B10320DAE735F8020BC2
:1018D000C0F30800E3E7202084F8710084F87080EA
:1018E0000020CEE70220CCE7FEE700EB8100006E8F
:1018F00000F0F84070478068C0F3C000704780680F
:10190000C0F380007047C06810F4406F01D0002021
:10191000704701207047042310B503EAD1531844DF
:10192000C1F3045107248C4043698A40A343134305
:10193000436110BD00EB8100016E21F000411143B5
:101940000166704730B5184887B016490024C0E9D1
:10195000001484600425C460C0E90445047644761C
:101960000121C16180F820408462C46280F8304067
:10197000446380F83840FEF7D3FE00B1FEE70B4821
:1019800000900620CDE901047F200594CDE90305F0
:1019900069460548FEF7C8FC002800D0FEE707B0FE
:1019A00030BD0000000004500C0000204000201951
:1019B000F0B5274887B0C16C41F00401C164C16C27
:1019C00001F004010591C16C41F00101C164C16CD9
:1019D00001F001010591C16C41F00201C164C06CCC
:1019E0004FF4406500F002004FF090460590002251
:1019F00029463046FFF7FEF8164F002248213846A8
:101A0000FFF7F8F800244FF40070CDE900046946B0
:101A100030460294FFF720F800950125CDE90154E6
:101A2000694630460394FFF717F848200090CDE947
:101A30000154694638460394FFF70EF8B020CDE90B
:101A40000004694638460294FFF706F807B0F0BD77
:101A500000100240000400480C4810B50A4901601B
:101A60004FF4E1314160002181600C22C160C0E986
:101A700004128161C16101624162FFF784FE0028A6
:101A800000D0FEE710BD00000044004070000020C0
:101A9000FEE770470907090E002806DA00F00F007C
:101AA00000F1E02080F8141D704700F1E02080F87C
:101AB00000147047704700002DE9F041444C054682
:101AC0008846E0680026810728680DD0E16801F0AB
:101AD0000301814216D1A8B1E0686968C0F3021021
:101AE000401C88420ED120E0012804D0022805D0F5
:101AF000032807D108E02168890701E0216849052A
:101B0000002907DB01265FE02168890302D42168F0
:101B10004903F5E7E1686A686FF00F0321F073018C
:101B200003EB021211430143E160206820F0806062
:101B30002060FFF765F8074605E000BFFFF760F893
:101B4000C01B022837D820680001F7D4B8F1000F75
:101B500018D0B8F1010F1DD0287D4FF07E4140080C
:101B600001EB4060A96840EA01202169194A11404F
:101B700008432061206840F080602060FFF740F853
:101B800007461AE0A868297B000240EAC160216983
:101B9000114AECE7288A1149400801EB4050A96836
:101BA00040EA012021690E4AE1E700BFFFF728F86B
:101BB000C01B022801D9032606E020680001F5D5E4
:101BC0002069A969084320613046BDE8F081000022
:101BD00000100240FF80FFF9FF80FF070000E0FFD8
:101BE000FF809FFFF8B51C4D06460024A86DC0007D
:101BF00002D5FFF7E1F80DE0A86D40F08050A86530
:101C0000A86D00F080500090FFF7D6F8A96D21F084
:101C10008051A965B0F5007F04D0802E07D94FF020
:101C200003040AE0802E08D9A02E01D804E001D1D7
:101C3000022402E0702E00D101240848016821F03E
:101C4000070121430160006800F00700A04201D0B5
:101C50000120F8BD0020F8BD001002400020024025
:101C6000704710B5FEF7D2FFBDE81040FFF787BD03
:101C70002DE9F041ACB0FFF7A7F82D4850F8901FC0
:101C800021F0180101601420012500900295002424
:101C900006956020CDE907404FF00208CDE90A859E
:101CA00010260727CDE90E78CDE90C566846CDF809
:101CB0004080FFF7E7FA00B1FEE70F2026900320EF
:101CC000CDE927042994012126A82A94FFF7D2F907
:101CD00000B1FEE744F202001190C00623901A946E
:101CE0001295CDE915780011CDE91780CDE913568D
:101CF00011A8FFF779F800B1FEE74FF40070FFF785
:101D000027F800B1FEE7FFF741FA4FF47A71B0FB14
:101D1000F1F0FFF720FD0420FFF710FDFFF75CF85E
:101D200000221146501EFEF7E1FF2CB0BDE8F08105
:101D3000001002400D48016841F4700101600C4838
:101D4000016841F001010160002181600268094BD6
:101D50001A4002608214C260026822F4802202608B
:101D600081610249C00380390860704788ED00E056
:101D700000100240FFFFF6EA90F82410C90706D0D1
:101D800001684A68836A22F400321A434A6090F874
:101D90002410890706D501684A68C36A22F4803294
:101DA0001A434A6090F82410490706D501684A682A
:101DB000036B22F480221A434A6090F8241009072A
:101DC00006D501684A68436B22F400421A434A6010
:101DD00090F82410C90606D501688A68836B22F43E
:101DE00080521A438A6090F82410890606D501684B
:101DF0008A68C36B22F400521A438A6090F8241058
:101E0000490611D501684A68036C22F480121A430E
:101E10004A60016CB1F5801F06D101684A68436CC5
:101E200022F4C0021A434A6090F82410090606D52D
:101E300001684A68806C22F4002202434A607047BD
:101E4000F8B5002604464667FEF7DAFE0546206828
:101E500000686FF07E47000708D52B4600224FF43C
:101E600000112046009700F033F960B9206800683F
:101E700040070AD52B4600224FF4800120460097E8
:101E800000F026F908B10320F8BD202084F8710085
:101E900084F8720084F870600020F8BD2DE9F041EC
:101EA0000446026880682369E6691843636910255F
:101EB0000027334318437D4913687D4E3340034365
:101EC000136020684268E36822F440521A4342607B
:101ED0002268A0698A4201D0236A1843936823F4D8
:101EE000306303439360734A2368734893420DD170
:101EF000D0F8880010F0030006D001282AD002286C
:101F000026D0032829D127E0012526E06B4A9342F9
:101F10000BD1D0F8880010F00C0017D0042819D08D
:101F2000082815D00C2818D116E08B4215D1D0F80E
:101F3000880010F4406009D0B0F5806F0AD0B0F589
:101F4000006F05D0B0F5406F07D105E0002504E033
:101F5000022502E0042500E00825594A00264FF436
:101F600000408B423DD135B1022D07D0042D07D062
:101F7000082D10D107E0FFF70FF903E0104602E04B
:101F8000FFF72EF9A8B3626802EB4201814202D842
:101F9000B0EB023F01D9012775E0DFF828815DB180
:101FA000022D0CD0042D13D0082DF4D15008290592
:101FB000401846F1000105E0FFF7EEF80AE050088E
:101FC0004149F5E70023FEF7FDF8A0F5407156E022
:101FD000FFF706F96268010E0302500818187141F4
:101FE000F0E7E1694FF6EF7881422FD1092DD2D287
:101FF00000E048E0DFE805F00609200523050505B7
:102000002600C8E7FFF7C8F801E0FFF7D7F841005E
:10201000D4F8040001EB5001B1FBF0F080B2A0F164
:1020200010014145B7D84FF6F0710140C0F34200AE
:1020300001432068C16026E024496068EAE7FFF7B1
:10204000CFF8E4E74FF480316068E3E7092DA2D2CE
:10205000DFE805F006091E052205050525009AE7BB
:10206000FFF79AF801E0FFF7A9F80146606801EB75
:10207000500100BFB1FBF0F080B2A0F1100141456A
:1020800089D82168C860266638466666BDE8F08152
:10209000606802EB5001EDE7FFF7A2F8E5E7616841
:1020A00000EB5100B0FBF1F0E6E7000000800040DB
:1020B000F369FFEF00380140001002400044004087
:1020C0000024F400FFFC0F00000024F40048E801A5
:1020D0002DE9F041984617460E460446069D1DE040
:1020E000681C1BD02DB1FEF78BFDA0EB0800A842A9
:1020F00014D92068016821F4D071016020688168DA
:1021000021F001018160202084F8710084F87200C0
:10211000002084F870000320BDE8F0812068C069C9
:1021200036EA000004D00020B842D9D00020F3E7FE
:102130000120F9E7FEE700000FB4084B10B504A931
:1021400002AA039800F01CF8044602A9002000F03F
:10215000C4F8204610BC5DF814FB0000DB22000828
:1021600002E008C8121F08C1002AFAD17047704760
:10217000002001E001C1121F002AFBD170470000BE
:102180002DE9FF4F89B09B460446002506E025282F
:102190000BD05A460B999047641C6D1C2078002880
:1021A000F5D10DB0284600F095B80027B8460122B9
:1021B000474900E0074314F8013F203B02FA03F0CF
:1021C0000842F7D120782E2819D114F8010F47F0D2
:1021D00004072A280ED06FF02F022078A0F13001DA
:1021E00009290CD808EB880102EB410100EB01083A
:1021F000641CF2E70A98641C50F8048B0A9020785B
:102200000028CED0642808D0692806D075281ED0B2
:102210005A460B9990476D1C58E00A994FF00A09ED
:1022200001C90A91002802DA40422D2102E0390555
:1022300004D52B218DF82010012103E0F90704D0EB
:102240002021F7E78A4608AE0DE00021FAE70A9957
:102250004FF00A0901C90A91F7E74946FDF7E6FF81
:10226000303106F8011D0028F7D1ADEB060000F172
:102270002009780701D44FF00108C84502DDA8EB1A
:10228000090000E000208046002706E008A85A4622
:10229000C05D0B9990476D1C7F1C5745F6DB04E031
:1022A00030205A460B9990476D1CB8F10001A8F1F7
:1022B0000108F5DC05E016F8010B5A460B9990472A
:1022C0006D1CB9F10001A9F10109F4DC641C65E79A
:1022D0000928010030BCBDE8C08F0A68531C0B60A0
:1022E00010707047FEF79AFCFFF7C2FCFFF760FB27
:1022F000FFF728FBFFF7B0FBDFF80081404C4FF001
:10230000FF394FF4806A4FF4007B4FF4C8774FF0E9
:1023100090463C48FEF74EFB4D4649463948FEF78D
:10232000F5FA3848FEF7F9F902462060354836A13B
:10233000DC30FFF701FF33492B46DC316422A1F189
:102340007800FFF779FA102145464046FEF74DFC2C
:1023500098B92C48FEF7E1F92060B8420DDB012264
:1023600008212846FEF746FCC820FEF767FB20211F
:102370002846FEF73AFC10B115E00022F0E72148AC
:10238000FEF7CBF92060B8420DDB01224021284640
:10239000FEF730FCC820FEF751FB80212846FEF7EF
:1023A00024FC10B115E00022F0E71648FEF7B5F95D
:1023B0002060B8420DDB012251463046FEF71AFC80
:1023C000C820FEF73BFB59463046FEF70EFC10B125
:1023D00007E00022F0E70B48FEF79FF92060B842C3
:1023E00001DA002200E001224FF400613046FEF7DE
:1023F00001FCC820FEF722FB8BE700000004004828
:10240000000000200C00002025640D0A00000000E0
:102410000000000000000000010203040607080994
:10242000A0860100400D0300801A060000350C0054
:1024300040420F0080841E0000093D0000127A0017
:102440000024F40000366E010048E801006CDC0254
:1024500000000000010203047824000800000020AE
:102460000C00000060210008842400080C000020FB
:10247000440500007021000800000000000000007A
:0424800000093D0012
:040000050800018D61
:00000001FF
